{
  "_format": "hh-sol-artifact-1",
  "contractName": "ERC20MSHKTokenVendor",
  "sourceName": "contracts/ERC20MSHKTokenVendor.sol",
  "abi": [
    {
      "inputs": [
        {
          "internalType": "address",
          "name": "tokenAddress",
          "type": "address"
        }
      ],
      "stateMutability": "nonpayable",
      "type": "constructor"
    },
    {
      "anonymous": false,
      "inputs": [
        {
          "indexed": false,
          "internalType": "address",
          "name": "buyer",
          "type": "address"
        },
        {
          "indexed": false,
          "internalType": "uint256",
          "name": "amountOfETH",
          "type": "uint256"
        },
        {
          "indexed": false,
          "internalType": "uint256",
          "name": "amountOfTokens",
          "type": "uint256"
        }
      ],
      "name": "BuyTokens",
      "type": "event"
    },
    {
      "anonymous": false,
      "inputs": [
        {
          "indexed": true,
          "internalType": "address",
          "name": "previousOwner",
          "type": "address"
        },
        {
          "indexed": true,
          "internalType": "address",
          "name": "newOwner",
          "type": "address"
        }
      ],
      "name": "OwnershipTransferred",
      "type": "event"
    },
    {
      "anonymous": false,
      "inputs": [
        {
          "indexed": false,
          "internalType": "address",
          "name": "seller",
          "type": "address"
        },
        {
          "indexed": false,
          "internalType": "uint256",
          "name": "amountOfTokens",
          "type": "uint256"
        },
        {
          "indexed": false,
          "internalType": "uint256",
          "name": "amountOfETH",
          "type": "uint256"
        }
      ],
      "name": "SellTokens",
      "type": "event"
    },
    {
      "inputs": [],
      "name": "buyTokens",
      "outputs": [
        {
          "internalType": "uint256",
          "name": "tokenAmount",
          "type": "uint256"
        }
      ],
      "stateMutability": "payable",
      "type": "function"
    },
    {
      "inputs": [],
      "name": "owner",
      "outputs": [
        {
          "internalType": "address",
          "name": "",
          "type": "address"
        }
      ],
      "stateMutability": "view",
      "type": "function"
    },
    {
      "inputs": [],
      "name": "renounceOwnership",
      "outputs": [],
      "stateMutability": "nonpayable",
      "type": "function"
    },
    {
      "inputs": [
        {
          "internalType": "uint256",
          "name": "tokenAmountToSell",
          "type": "uint256"
        }
      ],
      "name": "sellTokens",
      "outputs": [],
      "stateMutability": "nonpayable",
      "type": "function"
    },
    {
      "inputs": [],
      "name": "tokensPerEth",
      "outputs": [
        {
          "internalType": "uint256",
          "name": "",
          "type": "uint256"
        }
      ],
      "stateMutability": "view",
      "type": "function"
    },
    {
      "inputs": [
        {
          "internalType": "address",
          "name": "newOwner",
          "type": "address"
        }
      ],
      "name": "transferOwnership",
      "outputs": [],
      "stateMutability": "nonpayable",
      "type": "function"
    },
    {
      "inputs": [],
      "name": "withdraw",
      "outputs": [],
      "stateMutability": "nonpayable",
      "type": "function"
    }
  ],
  "bytecode": "0x608060405260646002553480156200001657600080fd5b50604051620017803803806200178083398181016040528101906200003c919062000187565b6200005c62000050620000a460201b60201c565b620000ac60201b60201c565b80600160006101000a81548173ffffffffffffffffffffffffffffffffffffffff021916908373ffffffffffffffffffffffffffffffffffffffff1602179055505062000201565b600033905090565b60008060009054906101000a900473ffffffffffffffffffffffffffffffffffffffff169050816000806101000a81548173ffffffffffffffffffffffffffffffffffffffff021916908373ffffffffffffffffffffffffffffffffffffffff1602179055508173ffffffffffffffffffffffffffffffffffffffff168173ffffffffffffffffffffffffffffffffffffffff167f8be0079c531659141344cd1fd0a4f28419497f9722a3daafe3b4186f6b6457e060405160405180910390a35050565b6000815190506200018181620001e7565b92915050565b6000602082840312156200019a57600080fd5b6000620001aa8482850162000170565b91505092915050565b6000620001c082620001c7565b9050919050565b600073ffffffffffffffffffffffffffffffffffffffff82169050919050565b620001f281620001b3565b8114620001fe57600080fd5b50565b61156f80620002116000396000f3fe6080604052600436106100705760003560e01c80638da5cb5b1161004e5780638da5cb5b146100cc578063cbdd69b5146100f7578063d0febe4c14610122578063f2fde38b1461014057610070565b80633ccfd60b146100755780636c11bcd31461008c578063715018a6146100b5575b600080fd5b34801561008157600080fd5b5061008a610169565b005b34801561009857600080fd5b506100b360048036038101906100ae9190610bef565b6102dd565b005b3480156100c157600080fd5b506100ca61064f565b005b3480156100d857600080fd5b506100e16106d7565b6040516100ee9190610e3b565b60405180910390f35b34801561010357600080fd5b5061010c610700565b604051610119919061106d565b60405180910390f35b61012a610706565b604051610137919061106d565b60405180910390f35b34801561014c57600080fd5b5061016760048036038101906101629190610b9d565b610985565b005b610171610a7d565b73ffffffffffffffffffffffffffffffffffffffff1661018f6106d7565b73ffffffffffffffffffffffffffffffffffffffff16146101e5576040517f08c379a00000000000000000000000000000000000000000000000000000000081526004016101dc90610fcd565b60405180910390fd5b60004790506000811161022d576040517f08c379a00000000000000000000000000000000000000000000000000000000081526004016102249061100d565b60405180910390fd5b60003373ffffffffffffffffffffffffffffffffffffffff164760405161025390610e26565b60006040518083038185875af1925050503d8060008114610290576040519150601f19603f3d011682016040523d82523d6000602084013e610295565b606091505b50509050806102d9576040517f08c379a00000000000000000000000000000000000000000000000000000000081526004016102d090610fed565b60405180910390fd5b5050565b60008111610320576040517f08c379a000000000000000000000000000000000000000000000000000000000815260040161031790610fad565b60405180910390fd5b6000600160009054906101000a900473ffffffffffffffffffffffffffffffffffffffff1673ffffffffffffffffffffffffffffffffffffffff166370a08231336040518263ffffffff1660e01b815260040161037d9190610e3b565b60206040518083038186803b15801561039557600080fd5b505afa1580156103a9573d6000803e3d6000fd5b505050506040513d601f19601f820116820180604052508101906103cd9190610c18565b905081811015610412576040517f08c379a000000000000000000000000000000000000000000000000000000000815260040161040990610f4d565b60405180910390fd5b60006002548361042291906110a4565b905060004790508181101561046c576040517f08c379a000000000000000000000000000000000000000000000000000000000815260040161046390610eed565b60405180910390fd5b6000600160009054906101000a900473ffffffffffffffffffffffffffffffffffffffff1673ffffffffffffffffffffffffffffffffffffffff166323b872dd3330886040518463ffffffff1660e01b81526004016104cd93929190610e56565b602060405180830381600087803b1580156104e757600080fd5b505af11580156104fb573d6000803e3d6000fd5b505050506040513d601f19601f8201168201806040525081019061051f9190610bc6565b905080610561576040517f08c379a000000000000000000000000000000000000000000000000000000000815260040161055890610f6d565b60405180910390fd5b3373ffffffffffffffffffffffffffffffffffffffff168360405161058590610e26565b60006040518083038185875af1925050503d80600081146105c2576040519150601f19603f3d011682016040523d82523d6000602084013e6105c7565b606091505b5050809150508061060d576040517f08c379a00000000000000000000000000000000000000000000000000000000081526004016106049061102d565b60405180910390fd5b7fa24838acd4af5195a2396965dae5abf54e84e8c19f5698bb966ae64e29994ee533868560405161064093929190610eb6565b60405180910390a15050505050565b610657610a7d565b73ffffffffffffffffffffffffffffffffffffffff166106756106d7565b73ffffffffffffffffffffffffffffffffffffffff16146106cb576040517f08c379a00000000000000000000000000000000000000000000000000000000081526004016106c290610fcd565b60405180910390fd5b6106d56000610a85565b565b60008060009054906101000a900473ffffffffffffffffffffffffffffffffffffffff16905090565b60025481565b600080341161074a576040517f08c379a000000000000000000000000000000000000000000000000000000000815260040161074190610f2d565b60405180910390fd5b60006002543461075a91906110d5565b90506000600160009054906101000a900473ffffffffffffffffffffffffffffffffffffffff1673ffffffffffffffffffffffffffffffffffffffff166370a08231306040518263ffffffff1660e01b81526004016107b99190610e3b565b60206040518083038186803b1580156107d157600080fd5b505afa1580156107e5573d6000803e3d6000fd5b505050506040513d601f19601f820116820180604052508101906108099190610c18565b90508181101561084e576040517f08c379a000000000000000000000000000000000000000000000000000000000815260040161084590610f8d565b60405180910390fd5b6000600160009054906101000a900473ffffffffffffffffffffffffffffffffffffffff1673ffffffffffffffffffffffffffffffffffffffff1663a9059cbb33856040518363ffffffff1660e01b81526004016108ad929190610e8d565b602060405180830381600087803b1580156108c757600080fd5b505af11580156108db573d6000803e3d6000fd5b505050506040513d601f19601f820116820180604052508101906108ff9190610bc6565b905080610941576040517f08c379a00000000000000000000000000000000000000000000000000000000081526004016109389061104d565b60405180910390fd5b7f0a37b72bb67eee30e09084cf386f8a17817c57f620c3ab95fb25d6a20356ec7733348560405161097493929190610eb6565b60405180910390a182935050505090565b61098d610a7d565b73ffffffffffffffffffffffffffffffffffffffff166109ab6106d7565b73ffffffffffffffffffffffffffffffffffffffff1614610a01576040517f08c379a00000000000000000000000000000000000000000000000000000000081526004016109f890610fcd565b60405180910390fd5b600073ffffffffffffffffffffffffffffffffffffffff168173ffffffffffffffffffffffffffffffffffffffff161415610a71576040517f08c379a0000000000000000000000000000000000000000000000000000000008152600401610a6890610f0d565b60405180910390fd5b610a7a81610a85565b50565b600033905090565b60008060009054906101000a900473ffffffffffffffffffffffffffffffffffffffff169050816000806101000a81548173ffffffffffffffffffffffffffffffffffffffff021916908373ffffffffffffffffffffffffffffffffffffffff1602179055508173ffffffffffffffffffffffffffffffffffffffff168173ffffffffffffffffffffffffffffffffffffffff167f8be0079c531659141344cd1fd0a4f28419497f9722a3daafe3b4186f6b6457e060405160405180910390a35050565b600081359050610b58816114f4565b92915050565b600081519050610b6d8161150b565b92915050565b600081359050610b8281611522565b92915050565b600081519050610b9781611522565b92915050565b600060208284031215610baf57600080fd5b6000610bbd84828501610b49565b91505092915050565b600060208284031215610bd857600080fd5b6000610be684828501610b5e565b91505092915050565b600060208284031215610c0157600080fd5b6000610c0f84828501610b73565b91505092915050565b600060208284031215610c2a57600080fd5b6000610c3884828501610b88565b91505092915050565b610c4a8161112f565b82525050565b6000610c5d603683611093565b9150610c68826111d5565b604082019050919050565b6000610c80602683611093565b9150610c8b82611224565b604082019050919050565b6000610ca3601b83611093565b9150610cae82611273565b602082019050919050565b6000610cc6604083611093565b9150610cd18261129c565b604082019050919050565b6000610ce9602d83611093565b9150610cf4826112eb565b604082019050919050565b6000610d0c603483611093565b9150610d178261133a565b604082019050919050565b6000610d2f602c83611093565b9150610d3a82611389565b604082019050919050565b6000610d52602083611093565b9150610d5d826113d8565b602082019050919050565b6000610d75602d83611093565b9150610d8082611401565b604082019050919050565b6000610d98600083611088565b9150610da382611450565b600082019050919050565b6000610dbb602183611093565b9150610dc682611453565b604082019050919050565b6000610dde601e83611093565b9150610de9826114a2565b602082019050919050565b6000610e01602083611093565b9150610e0c826114cb565b602082019050919050565b610e208161116d565b82525050565b6000610e3182610d8b565b9150819050919050565b6000602082019050610e506000830184610c41565b92915050565b6000606082019050610e6b6000830186610c41565b610e786020830185610c41565b610e856040830184610e17565b949350505050565b6000604082019050610ea26000830185610c41565b610eaf6020830184610e17565b9392505050565b6000606082019050610ecb6000830186610c41565b610ed86020830185610e17565b610ee56040830184610e17565b949350505050565b60006020820190508181036000830152610f0681610c50565b9050919050565b60006020820190508181036000830152610f2681610c73565b9050919050565b60006020820190508181036000830152610f4681610c96565b9050919050565b60006020820190508181036000830152610f6681610cb9565b9050919050565b60006020820190508181036000830152610f8681610cdc565b9050919050565b60006020820190508181036000830152610fa681610cff565b9050919050565b60006020820190508181036000830152610fc681610d22565b9050919050565b60006020820190508181036000830152610fe681610d45565b9050919050565b6000602082019050818103600083015261100681610d68565b9050919050565b6000602082019050818103600083015261102681610dae565b9050919050565b6000602082019050818103600083015261104681610dd1565b9050919050565b6000602082019050818103600083015261106681610df4565b9050919050565b60006020820190506110826000830184610e17565b92915050565b600081905092915050565b600082825260208201905092915050565b60006110af8261116d565b91506110ba8361116d565b9250826110ca576110c96111a6565b5b828204905092915050565b60006110e08261116d565b91506110eb8361116d565b9250817fffffffffffffffffffffffffffffffffffffffffffffffffffffffffffffffff048311821515161561112457611123611177565b5b828202905092915050565b600061113a8261114d565b9050919050565b60008115159050919050565b600073ffffffffffffffffffffffffffffffffffffffff82169050919050565b6000819050919050565b7f4e487b7100000000000000000000000000000000000000000000000000000000600052601160045260246000fd5b7f4e487b7100000000000000000000000000000000000000000000000000000000600052601260045260246000fd5b7f56656e646f7220686173206e6f7420656e6f7567682066756e647320746f206160008201527f6363657074207468652073656c6c207265717565737400000000000000000000602082015250565b7f4f776e61626c653a206e6577206f776e657220697320746865207a65726f206160008201527f6464726573730000000000000000000000000000000000000000000000000000602082015250565b7f53656e642045544820746f2062757920736f6d6520746f6b656e730000000000600082015250565b7f596f75722062616c616e6365206973206c6f776572207468616e20746865206160008201527f6d6f756e74206f6620746f6b656e7320796f752077616e7420746f2073656c6c602082015250565b7f4661696c656420746f207472616e7366657220746f6b656e732066726f6d207560008201527f73657220746f2076656e646f7200000000000000000000000000000000000000602082015250565b7f56656e646f7220636f6e747261637420686173206e6f7420656e6f756768207460008201527f6f6b656e7320696e206974732062616c616e6365000000000000000000000000602082015250565b7f5370656369667920616e20616d6f756e74206f6620746f6b656e20677265617460008201527f6572207468616e207a65726f0000000000000000000000000000000000000000602082015250565b7f4f776e61626c653a2063616c6c6572206973206e6f7420746865206f776e6572600082015250565b7f4661696c656420746f2073656e6420757365722062616c616e6365206261636b60008201527f20746f20746865206f776e657200000000000000000000000000000000000000602082015250565b50565b7f4f776e657220686173206e6f742062616c616e636520746f207769746864726160008201527f7700000000000000000000000000000000000000000000000000000000000000602082015250565b7f4661696c656420746f2073656e642045544820746f2074686520757365720000600082015250565b7f4661696c656420746f207472616e7366657220746f6b656e20746f2075736572600082015250565b6114fd8161112f565b811461150857600080fd5b50565b61151481611141565b811461151f57600080fd5b50565b61152b8161116d565b811461153657600080fd5b5056fea264697066735822122042e7a97664aeae28535752d130d98645fc4fdf25cb1a1acc22c0597ae12035e864736f6c63430008040033",
  "linkReferences": {},
  "deployedLinkReferences": {}
}